:020000040800F2
:1000000000280020D1050008350500083D0500083E
:10001000450500084D0500085505000800000000D2
:100020000000000000000000000000005D05000866
:10003000690500080000000075050008810500083A
:100040001906000819060008190600081906000814
:100050001906000819060008190600081906000804
:1000600019060008190600081906000819060008F4
:1000700019060008190600081906000819060008E4
:1000800019060008190600081906000819060008D4
:100090008D050008A105000819060008B50500082F
:1000A00019060008190600081906000819060008B4
:1000B00019060008190600080000000019060008CB
:1000C00019060008000000000000000019060008E2
:1000D00000000000190600081906000800000000D2
:1000E000190600081906000819060008000000009B
:1000F0000000000000000000000000000000000000
:0C01000000000000000000005FF808F1A3
:10010C0010B5054C237833B9044B13B10448AFF345
:10011C0000800123237010BD0C00002000000000A3
:10012C00EC1E000808B5034B1BB103490348AFF3A1
:10013C00008008BD0000000010000020EC1E00082C
:10014C0080B582B000AF0346FB80FB88B3F5007F1F
:10015C000AD1074B074A0849084800F0C3FC4FF482
:10016C000051074801F080FA00BF0837BD4680BD3A
:10017C0070000020680000205000002028000020A3
:10018C000010014080B58AB000AF2A4BDE221A70F5
:10019C00284BAD225A70274BBE229A70254BEF226A
:1001AC00DA7000F035FA00F04BF800F0C5F800F00A
:1001BC008DF800237B610023BB610123FB610023CD
:1001CC003B6000237B600023BB600023FB600023AB
:1001DC003B6101233B620D237B623B46194616486B
:1001EC0000F073FB0346002B01D000F009F9124814
:1001FC0000F034FC0346002B01D000F001F9022181
:10020C000D4800F03EFD0346002B01D000F0F8F83D
:10021C000A4B4FF480721A60084B0022DA60074BCD
:10022C0000229A60054B04221A61044B00221A75B5
:10023C0000BFFDE7680000202800002050000020CF
:10024C0080B590B000AF07F11803282200211846A2
:10025C0001F01AFE3B1D00221A605A609A60DA60A7
:10026C001A610123BB614FF48033FB6100233B62B5
:10027C000123BB6202237B634FF48033BB634FF4D7
:10028C00E013FB6307F11803184601F01FFA03464D
:10029C00002B01D000F0B4F80F237B600223BB606D
:1002AC000023FB604FF480633B6100237B613B1DAB
:1002BC000221184601F08CFC0346002B01D000F003
:1002CC009FF800BF4037BD4680BD000080B500AF31
:1002DC00174B184A1A60164B04225A60144B002212
:1002EC009A60134B0022DA60114B4FF460221A61B2
:1002FC000F4B4FF480125A610D4B00221A760C4BA7
:10030C0000225A760A4B00229A76094B0022DA76A2
:10031C00074B00221A77064B00225A77044800F04C
:10032C00D9F90346002B01D000F06AF800BF80BD5C
:10033C00280000200064004080B588B000AF07F1B1
:10034C00100300221A605A609A60DA60284B9B698D
:10035C00274A43F010039361254B9B6903F010036C
:10036C00FB60FB68224B9B69214A43F0200393619D
:10037C001F4B9B6903F02003BB60BB681C4B9B6944
:10038C001B4A43F004039361194B9B6903F004036C
:10039C007B607B6800224FF40051164801F04CF949
:1003AC004FF400533B6101237B610023BB610223AB
:1003BC00FB6107F1100319460E4800F0C1FF4FF422
:1003CC0000733B610C4B7B610123BB6107F1100394
:1003DC0019460A4800F0B4FF00220021172000F053
:1003EC0078FF172000F091FF00BF2037BD4680BD7D
:1003FC0000100240001001400000211000080140D4
:10040C0080B400AF00BFBD4680BC704780B485B0DF
:10041C0000AF154B9B69144A43F001039361124BD7
:10042C009B6903F00103BB60BB680F4BDB690E4A91
:10043C0043F08053D3610C4BDB6903F080537B603A
:10044C007B680A4B5B68FB60FB6823F0E063FB6036
:10045C00FB6843F00073FB60044AFB68536000BF09
:10046C001437BD4680BC70470010024000000140AC
:10047C0080B588B000AF786007F1100300221A60D5
:10048C005A609A60DA607B681B68244A934241D1B7
:10049C00234BDB69224A43F00073D361204BDB69A9
:1004AC0003F00073FB60FB681D4B9B691C4A43F017
:1004BC00040393611A4B9B6903F00403BB60BB6894
:1004CC004FF400633B6100237B610023BB6107F1A8
:1004DC0010031946134800F033FF4FF480533B616F
:1004EC0002237B610323FB6107F1100319460D48BE
:1004FC0000F026FF00220021142000F0EAFE142058
:10050C0000F003FF00220021152000F0E2FE152070
:10051C0000F0FBFE00BF2037BD4680BD00640040EC
:10052C00001002400008014080B400AF00BFFDE79E
:10053C0080B400AF00BFFDE780B400AF00BFFDE7A3
:10054C0080B400AF00BFFDE780B400AF00BFFDE793
:10055C0080B400AF00BFBD4680BC704780B400AF14
:10056C0000BFBD4680BC704780B400AF00BFBD4625
:10057C0080BC704780B500AF00F090F800BF80BD24
:10058C0080B500AF024800F0A1FB00BF80BD00BFEA
:10059C002800002080B500AF024800F097FB00BF98
:1005AC0080BD00BF2800002080B500AF4FF4007064
:1005BC0001F074F800BF80BD80B400AF00BFBD4631
:1005CC0080BC7047FFF7F8FF0B480C490C4A00231E
:1005DC0002E0D458C4500433C4188C42F9D3094AED
:1005EC00094C002301E013600432A242FBD301F05A
:1005FC0053FCFFF7C7FD7047000000200C000020E3
:10060C00301F00080C00002078000020FEE70000DE
:10061C0080B500AF084B1B68074A43F0100313600A
:10062C00032000F04BFE0F2000F008F8FFF7EEFE61
:10063C000023184680BD00BF0020024080B582B068
:10064C0000AF7860124B1A68124B1B7819464FF4A6
:10065C007A73B3FBF1F3B2FBF3F3184600F063FECD
:10066C000346002B01D001230EE07B680F2B0AD828
:10067C00002279684FF0FF3000F02BFE064A7B68B1
:10068C001360002300E0012318460837BD4680BDE7
:10069C0000000020080000200400002080B400AFFF
:1006AC00054B1B781A46054B1B681344034A136011
:1006BC0000BFBD4680BC70470800002074000020BD
:1006CC0080B400AF024B1B681846BD4680BC704717
:1006DC007400002080B584B000AF78607B68002B7C
:1006EC0001D10123EDE07B6893F82030DBB2002BC5
:1006FC0002D17868FFF7BCFE7B681B681A687B68C0
:10070C001B6842F001021A60FFF7DAFFF86012E092
:10071C00FFF7D6FF0246FB68D31A0A2B0BD97B686E
:10072C005B6A43F400327B685A627B68052283F86B
:10073C0020200123C5E07B681B685B6803F0010384
:10074C00002BE5D07B681B681A687B681B6822F05D
:10075C0002021A60FFF7B4FFF86012E0FFF7B0FF77
:10076C000246FB68D31A0A2B0BD97B685B6A43F4ED
:10077C0000327B685A627B68052283F820200123B3
:10078C009FE07B681B685B6803F00203002BE5D1DC
:10079C007B681B7E012B08D17B681B681A687B6801
:1007AC001B6842F080021A6007E07B681B681A68BD
:1007BC007B681B6822F080021A607B685B7E012BD1
:1007CC0008D17B681B681A687B681B6842F0400282
:1007DC001A6007E07B681B681A687B681B6822F04C
:1007EC0040021A607B689B7E012B08D17B681B68DA
:1007FC001A687B681B6842F020021A6007E07B686D
:10080C001B681A687B681B6822F020021A607B68E0
:10081C00DB7E012B08D17B681B681A687B681B6820
:10082C0022F010021A6007E07B681B681A687B686C
:10083C001B6842F010021A607B681B7F012B08D1E9
:10084C007B681B681A687B681B6842F008021A6098
:10085C0007E07B681B681A687B681B6822F008023B
:10086C001A607B685B7F012B08D17B681B681A6858
:10087C007B681B6842F004021A6007E07B681B6807
:10088C001A687B681B6822F004021A607B689A68FD
:10089C007B68DB681A437B681B691A437B685B695E
:1008AC0042EA03017B685B685A1E7B681B680A433B
:1008BC00DA617B6800225A627B68012283F820206F
:1008CC00002318461037BD4680BD80B487B000AFFA
:1008DC00786039607B681B687B617B6893F820309B
:1008EC00FB74FB7C012B03D0FB7C022B40F0AA8019
:1008FC007B69D3F8003243F001027B69C3F8002214
:10090C003B685B6903F01F03012202FA03F3FB60EF
:10091C007B69D3F81C22FB68DB431A407B69C3F864
:10092C001C223B68DB69002B23D17B69D3F80C229A
:10093C00FB68DB431A407B69C3F80C223B68DB681D
:10094C0019043B685B689BB23A68526919437B692E
:10095C00483243F832103B689B6819043B681B68AB
:10096C009AB23B685B690A4379694833DB000B44F4
:10097C005A603B68DB69012B22D17B69D3F80C22CE
:10098C00FB681A437B69C3F80C223B681B6819048B
:10099C003B685B689BB23A68526919437B69483281
:1009AC0043F832103B689B6819043B68DB689AB2C9
:1009BC003B685B690A4379694833DB000B445A6036
:1009CC003B689B69002B09D17B69D3F80422FB6837
:1009DC00DB431A407B69C3F8042207E07B69D3F838
:1009EC000422FB681A437B69C3F804223B681B6929
:1009FC00002B09D17B69D3F81422FB68DB431A4026
:100A0C007B69C3F8142207E07B69D3F81422FB68D6
:100A1C001A437B69C3F814223B681B6A012B07D16C
:100A2C007B69D3F81C22FB681A437B69C3F81C2230
:100A3C007B69D3F8003223F001027B69C3F80022F2
:100A4C00002306E07B685B6A43F480227B685A6271
:100A5C00012318461C37BD4680BC704780B584B056
:100A6C0000AF78607B6893F82030DBB2012B2ED17D
:100A7C007B68022283F820207B681B681A687B68DD
:100A8C001B6822F001021A60FFF71AFEF86012E0F0
:100A9C00FFF716FE0246FB68D31A0A2B0BD97B68AC
:100AAC005B6A43F400327B685A627B68052283F8E8
:100ABC002020012312E07B681B685B6803F00103B4
:100ACC00002BE5D17B6800225A62002306E07B688C
:100ADC005B6A43F400227B685A6201231846103784
:100AEC00BD4680BD80B489B000AFF860B9607A6053
:100AFC003B60FB6893F82030FB77FB681B689B68B6
:100B0C00BB61FB7F012B03D0FB7F022B40F0AD8040
:100B1C00BB6903F08063002B0AD1BB6903F000634F
:100B2C00002B05D1BB6903F08053002B00F095809E
:100B3C00BB691B0E03F003037B6101227B699A40A6
:100B4C003B681A60BB689B68002B0DD1BB681B68A7
:100B5C005A05BB68DB68F96809681A437B69183366
:100B6C001B010B441A600FE0BB685B68DA00BB68C2
:100B7C009B681A43BB68DB68F96809681A437B6990
:100B8C0018331B010B441A60FB681968BB681A699F
:100B9C007B6918331B010B4404331A60BB681B7D43
:100BAC00012B11D1FB681A687B6918331B011344A4
:100BBC0004331B68FA68116843F480727B6918333C
:100BCC001B010B4404331A607B6807331B781A062D
:100BDC007B6806331B781B041A437B6805331B7830
:100BEC001B0213437A68043212781046FA681168B3
:100BFC0043EA00027B691B010B4403F5C6731A60C0
:100C0C007B6803331B781A067B6802331B781B0442
:100C1C001A437B6801331B781B0213437A681278E2
:100C2C001046FA68116843EA00027B691B010B4409
:100C3C0003F5C4731A60FB681A687B6918331B01CF
:100C4C0013441B68FA68116843F001027B6918337E
:100C5C001B010B441A6000230EE0FB685B6A43F433
:100C6C000012FB685A62012306E0FB685B6A43F4DE
:100C7C008022FB685A62012318462437BD4680BC8B
:100C8C00704780B485B000AF786039607B6893F8AA
:100C9C002030FB73FB7B012B02D0FB7B022B09D199
:100CAC007B681B6859697B681B683A680A435A6100
:100CBC00002306E07B685B6A43F480227B685A62FF
:100CCC00012318461437BD4680BC704780B58AB0E6
:100CDC0000AF786000237B627B681B685B693B62BA
:100CEC007B681B685B68FB617B681B689B68BB61EE
:100CFC007B681B68DB687B617B681B681B693B61DD
:100D0C007B681B689B69FB603B6A03F00103002B4B
:100D1C007CD0BB6903F00103002B23D07B681B68DC
:100D2C0001229A60BB6903F00203002B03D07868A0
:100D3C0000F083F916E0BB6903F00403002B04D028
:100D4C007B6A43F400637B620CE0BB6903F008032D
:100D5C00002B04D07B6A43F480537B6202E07868FA
:100D6C0000F086F9BB6903F48073002B24D07B68F8
:100D7C001B684FF480729A60BB6903F40073002BFC
:100D8C0003D0786800F062F916E0BB6903F4806365
:100D9C00002B04D07B6A43F400537B620CE0BB69EC
:100DAC0003F40063002B04D07B6A43F480437B6222
:100DBC0002E0786800F065F9BB6903F48033002B1E
:100DCC0024D07B681B684FF480329A60BB6903F4B3
:100DDC000033002B03D0786800F041F916E0BB69B2
:100DEC0003F48023002B04D07B6A43F400437B6222
:100DFC000CE0BB6903F40023002B04D07B6A43F4A2
:100E0C0080337B6202E0786800F044F93B6A03F0BF
:100E1C000803002B0CD07B6903F01003002B07D0C8
:100E2C007B6A43F400737B627B681B681022DA6078
:100E3C003B6A03F00403002B0BD07B6903F008031F
:100E4C00002B06D07B681B680822DA60786800F0FB
:100E5C0033F93B6A03F00203002B09D07B681B6853
:100E6C00DB6803F00303002B02D0786800F01BF959
:100E7C003B6A03F04003002B0CD03B6903F01003DA
:100E8C00002B07D07B6A43F480637B627B681B6812
:100E9C0010221A613B6A03F02003002B0BD03B6934
:100EAC0003F00803002B06D07B681B6808221A612C
:100EBC00786800F013F93B6A03F01003002B09D09B
:100ECC007B681B681B6903F00303002B02D0786856
:100EDC0000F0FBF83B6A03F40033002B0BD0FB69EA
:100EEC0003F01003002B06D07B681B6810225A609D
:100EFC00786800F0FCF83B6A03F48033002B0BD0CD
:100F0C00FB6903F00803002B06D07B681B680822E2
:100F1C005A60786800F0F4F83B6A03F40043002B45
:100F2C007BD0FB6903F00403002B72D03B6A03F403
:100F3C008073002B08D0FB6803F00103002B03D057
:100F4C007B6A43F001037B623B6A03F40073002B62
:100F5C0008D0FB6803F00203002B03D07B6A43F03C
:100F6C0002037B623B6A03F48063002B08D0FB68AE
:100F7C0003F00403002B03D07B6A43F004037B6271
:100F8C003B6A03F40063002B43D0FB6803F070034F
:100F9C00002B3ED0FB6803F07003602B2BD0602B32
:100FAC002ED8502B22D0502B2AD8402B19D0402B86
:100FBC0026D8302B10D0302B22D8102B02D0202B3F
:100FCC0005D01DE07B6A43F008037B6219E07B6A65
:100FDC0043F010037B6214E07B6A43F020037B62D6
:100FEC000FE07B6A43F040037B620AE07B6A43F0CC
:100FFC0080037B6205E07B6A43F480737B6200E0D4
:10100C0000BF7B681B689A697B681B6822F07002C2
:10101C009A617B681B6804225A607B6A002B08D09B
:10102C007B685A6A7B6A1A437B685A62786800F05C
:10103C0070F800BF2837BD4680BD80B483B000AFC8
:10104C00786000BF0C37BD4680BC704780B483B05D
:10105C0000AF786000BF0C37BD4680BC704780B4D1
:10106C0083B000AF786000BF0C37BD4680BC7047C2
:10107C0080B483B000AF786000BF0C37BD4680BC35
:10108C00704780B483B000AF786000BF0C37BD46AA
:10109C0080BC704780B483B000AF786000BF0C3761
:1010AC00BD4680BC704780B483B000AF786000BF91
:1010BC000C37BD4680BC704780B483B000AF7860FD
:1010CC0000BF0C37BD4680BC704780B483B000AF06
:1010DC00786000BF0C37BD4680BC704780B483B0CD
:1010EC0000AF786000BF0C37BD4680BC704780B441
:1010FC0083B000AF786000BF0C37BD4680BC704732
:10110C0080B483B000AF786000BF0C37BD4680BCA4
:10111C00704780B483B000AF786000BF0C37BD4619
:10112C0080BC704780B485B000AF78607B6803F0FA
:10113C000703FB600C4BDB68BB60BA684FF6FF0320
:10114C001340BB60FB681A02BB68134343F0BF63D8
:10115C0043F40033BB60044ABB68D36000BF143750
:10116C00BD4680BC704700BF00ED00E080B400AF0E
:10117C00044BDB681B0A03F007031846BD4680BC12
:10118C00704700BF00ED00E080B483B000AF0346B1
:10119C00FB7197F90730002B0BDBFB7903F01F0277
:1011AC00064997F907305B09012000FA02F241F871
:1011BC00232000BF0C37BD4680BC704700E100E027
:1011CC0080B483B000AF03463960FB7197F90730E8
:1011DC00002B0ADB3B68DAB20C4997F90730120195
:1011EC00D2B20B4483F800230AE03B68DAB2084918
:1011FC00FB7903F00F03043B1201D2B20B441A76B5
:10120C0000BF0C37BD4680BC704700BF00E100E05A
:10121C0000ED00E080B489B000AFF860B9607A608E
:10122C00FB6803F00703FB61FB69C3F10703042BA5
:10123C0028BF0423BB61FB690433062B02D9FB696D
:10124C00033B00E000237B614FF0FF32BB6902FAE5
:10125C0003F3DA43BB681A407B699A404FF0FF31C5
:10126C007B6901FA03F3D9437B680B40134318469F
:10127C002437BD4680BC704780B582B000AF786023
:10128C007B68013BB3F1807F01D301230FE00A4A55
:10129C007B68013B53600F214FF0FF30FFF790FF4D
:1012AC00054B00229A60044B07221A600023184653
:1012BC000837BD4680BD00BF10E000E080B582B0AD
:1012CC0000AF78607868FFF72DFF00BF0837BD4688
:1012DC0080BD80B586B000AF0346B9607A60FB7301
:1012EC0000237B61FFF742FF78617A68B9687869FF
:1012FC00FFF790FF024697F90F3011461846FFF79B
:10130C005FFF00BF1837BD4680BD80B582B000AF0F
:10131C000346FB7197F907301846FFF735FF00BFFE
:10132C000837BD4680BD80B582B000AF7860786864
:10133C00FFF7A2FF034618460837BD4680BD0000E4
:10134C0080B48BB000AF7860396000237B620023DF
:10135C003B6261E101227B6A02FA03F3FB613B68A9
:10136C001B68FA691340BB61BA69FB699A4240F089
:10137C0050813B685B68974A93425ED0954A934292
:10138C0075D8954A934258D0934A93426FD8934A52
:10139C00934252D0914A934269D8914A93424CD08D
:1013AC008F4A934263D88F4A934246D08D4A9342D8
:1013BC005DD8122B2AD8122B59D801A252F823F03F
:1013CC004714000821140008331400087514000891
:1013DC007B1400087B1400087B1400087B140008A5
:1013EC007B1400087B1400087B1400087B14000895
:1013FC007B1400087B1400087B1400087B14000885
:10140C007B140008291400083D140008764A934206
:10141C0013D02CE03B68DB683B6229E03B68DB685F
:10142C0004333B6224E03B68DB6808333B621FE01B
:10143C003B68DB680C333B621AE03B689B68002B13
:10144C0002D104233B6213E03B689B68012B05D15E
:10145C0008233B627B68FA691A6109E008233B6246
:10146C007B68FA695A6103E000233B6200E000BF2D
:10147C00BB69FF2B01D87B6801E07B6804337B617F
:10148C00BB69FF2B02D87B6A9B0002E07B6A083B9E
:10149C009B003B617B691A680F213B6901FA03F3DE
:1014AC00DB431A40396A3B6901FA03F31A437B693F
:1014BC001A603B685B6803F08053002B00F0A98036
:1014CC004A4B9B69494A43F001039361474B9B6923
:1014DC0003F00103BB60BB68454A7B6A9B0802337F
:1014EC0052F82330FB607B6A03F003039B000F224E
:1014FC0002FA03F3DB43FA681340FB607B683D4A56
:10150C0093420DD07B683C4A934207D07B683B4AA0
:10151C00934201D1022304E0032302E0012300E003
:10152C0000237A6A02F0030292009340FA68134394
:10153C00FB602F497B6A9B080233FA6841F8232031
:10154C003B685B6803F48013002B06D02C4B9A6825
:10155C002B49BB6913438B6006E0294B9A68BB6926
:10156C00DB43274913408B603B685B6803F4001333
:10157C00002B06D0224BDA682149BB691343CB60A0
:10158C0006E01F4BDA68BB69DB431D491340CB6097
:10159C003B685B6803F40033002B06D0184B5A6889
:1015AC001749BB6913434B6006E0154B5A68BB697E
:1015BC00DB43134913404B603B685B6803F4803397
:1015CC00002B1FD00E4B1A680D49BB6913430B60DF
:1015DC001FE000BF0000321000003110000022108C
:1015EC000000211000001210000011100010024029
:1015FC000000014000080140000C014000100140B7
:10160C00000401400B4B1A68BB69DB4309491340CA
:10161C000B607B6A01337B623B681A687B6A22FA37
:10162C0003F3002B7FF496AE00BF00BF2C37BD46F2
:10163C0080BC70470004014080B483B000AF786078
:10164C000B467B8013467B707B78002B03D07A880B
:10165C007B681A6103E07B881A047B681A6100BFFF
:10166C000C37BD4680BC704780B485B000AF786045
:10167C000B467B807B68DB68FB607A88FB681340D9
:10168C001A04FB68D9437B880B401A437B681A61A8
:10169C0000BF1437BD4680BC7047000080B582B0D7
:1016AC0000AF0346FB80084B5A69FB881340002BA4
:1016BC0006D0054AFB885361FB881846FEF740FDAF
:1016CC0000BF0837BD4680BD0004014080B586B020
:1016DC0000AF78607B68002B01D1012372E27B683C
:1016EC001B6803F00103002B00F08780924B5B68B2
:1016FC0003F00C03042B0CD08F4B5B6803F00C0332
:10170C00082B12D18C4B5B6803F48033B3F5803F0C
:10171C000BD1894B1B6803F40033002B6CD07B6816
:10172C005B68002B68D101234CE27B685B68B3F5E6
:10173C00803F06D1804B1B687F4A43F48033136093
:10174C002EE07B685B68002B0CD17B4B1B687A4AC4
:10175C0023F480331360784B1B68774A23F480237F
:10176C0013601DE07B685B68B3F5A02F0CD1724B46
:10177C001B68714A43F4802313606F4B1B686E4ADD
:10178C0043F4803313600BE06B4B1B686A4A23F401
:10179C0080331360684B1B68674A23F48023136003
:1017AC007B685B68002B13D0FEF78AFF386108E07A
:1017BC00FEF786FF02463B69D31A642B01D903233B
:1017CC0000E25D4B1B6803F40033002BF0D014E0F7
:1017DC00FEF776FF386108E0FEF772FF02463B69C0
:1017EC00D31A642B01D90323ECE1534B1B6803F48C
:1017FC000033002BF0D100E000BF7B681B6803F0C6
:10180C000203002B63D04C4B5B6803F00C03002BE2
:10181C000BD0494B5B6803F00C03082B1CD1464BD7
:10182C005B6803F48033002B16D1434B1B6803F029
:10183C000203002B05D07B681B69012B01D001230F
:10184C00C0E13D4B1B6823F0F8027B685B69DB0051
:10185C00394913430B603AE07B681B69002B20D09D
:10186C00364B01221A60FEF72BFF386108E0FEF7B9
:10187C0027FF02463B69D31A022B01D90323A1E1AE
:10188C002D4B1B6803F00203002BF0D02A4B1B6876
:10189C0023F0F8027B685B69DB00274913430B607C
:1018AC0015E0264B00221A60FEF70AFF386108E0AB
:1018BC00FEF706FF02463B69D31A022B01D903231C
:1018CC0080E11D4B1B6803F00203002BF0D17B68F9
:1018DC001B6803F00803002B3AD07B689B69002B34
:1018EC0019D0174B01221A60FEF7EAFE386108E0A6
:1018FC00FEF7E6FE02463B69D31A022B01D90323FD
:10190C0060E10D4B5B6A03F00203002BF0D0012069
:10191C0000F09CFA1CE00A4B00221A60FEF7D0FE85
:10192C0038610FE0FEF7CCFE02463B69D31A022B5E
:10193C0008D9032346E100BF0010024000004242D8
:10194C0080044242924B5B6A03F00203002BE9D104
:10195C007B681B6803F00403002B00F0A6800023B7
:10196C00FB758B4BDB6903F08053002B0DD1884B3F
:10197C00DB69874A43F08053D361854BDB6903F005
:10198C008053BB60BB680123FB75824B1B6803F45F
:10199C008073002B18D17F4B1B687E4A43F48073F5
:1019AC001360FEF78DFE386108E0FEF789FE0246F3
:1019BC003B69D31A642B01D9032303E1754B1B68D4
:1019CC0003F48073002BF0D07B68DB68012B06D10D
:1019DC006F4B1B6A6E4A43F0010313622DE07B6868
:1019EC00DB68002B0CD16A4B1B6A694A23F001039C
:1019FC001362674B1B6A664A23F0040313621CE0F4
:101A0C007B68DB68052B0CD1614B1B6A604A43F089
:101A1C00040313625E4B1B6A5D4A43F001031362BD
:101A2C000BE05B4B1B6A5A4A23F001031362584BC1
:101A3C001B6A574A23F0040313627B68DB68002B94
:101A4C0015D0FEF73DFE38610AE0FEF739FE02467E
:101A5C003B69D31A41F28832934201D90323B1E096
:101A6C004B4B1B6A03F00203002BEED014E0FEF785
:101A7C0027FE38610AE0FEF723FE02463B69D31AC3
:101A8C0041F28832934201D903239BE0404B1B6AFD
:101A9C0003F00203002BEED1FB7D012B05D13C4B57
:101AAC00DB693B4A23F08053D3617B68DB69002BF5
:101ABC0000F08780364B5B6803F00C03082B61D079
:101ACC007B68DB69022B46D1334B00221A60FEF790
:101ADC00F7FD386108E0FEF7F3FD02463B69D31AC7
:101AEC00022B01D903236DE0294B1B6803F0007313
:101AFC00002BF0D17B681B6AB3F5803F08D1244BD7
:101B0C005B6823F400327B689B68214913434B606C
:101B1C001F4B5B6823F474127B68196A7B685B6AE1
:101B2C000B431B4913434B601B4B01221A60FEF7FE
:101B3C00C7FD386108E0FEF7C3FD02463B69D31AC6
:101B4C00022B01D903233DE0114B1B6803F00073FA
:101B5C00002BF0D035E0104B00221A60FEF7B0FDE0
:101B6C00386108E0FEF7ACFD02463B69D31A022B44
:101B7C0001D9032326E0064B1B6803F00073002BEE
:101B8C00F0D11EE07B68DB69012B07D1012319E042
:101B9C000010024000700040600042420B4B5B683A
:101BAC00FB60FB6803F480327B681B6A9A4206D1A7
:101BBC00FB6803F470127B685B6A9A4201D00123C4
:101BCC0000E0002318461837BD4680BD00100240C7
:101BDC0080B584B000AF786039607B68002B01D190
:101BEC000123D0E06A4B1B6803F007033A689A4262
:101BFC0010D9674B1B6823F0070265493B681343F8
:101C0C000B60634B1B6803F007033A689A4201D0E0
:101C1C000123B8E07B681B6803F00203002B20D083
:101C2C007B681B6803F00403002B05D0594B5B68E1
:101C3C00584A43F4E06353607B681B6803F0080365
:101C4C00002B05D0534B5B68524A43F460535360EE
:101C5C00504B5B6823F0F0027B689B684D49134343
:101C6C004B607B681B6803F00103002B40D07B6842
:101C7C005B68012B07D1474B1B6803F40033002B27
:101C8C0015D101237FE07B685B68022B07D1414BA8
:101C9C001B6803F00073002B09D1012373E03D4B4B
:101CAC001B6803F00203002B01D101236BE0394BBD
:101CBC005B6823F003027B685B68364913434B6017
:101CCC00FEF7FEFCF8600AE0FEF7FAFC0246FB6841
:101CDC00D31A41F28832934201D9032353E02D4B9E
:101CEC005B6803F00C027B685B689B009A42EBD14B
:101CFC00274B1B6803F007033A689A4210D2244B17
:101D0C001B6823F0070222493B6813430B60204BEE
:101D1C001B6803F007033A689A4201D0012332E0B2
:101D2C007B681B6803F00403002B08D0194B5B681D
:101D3C0023F4E0627B68DB68164913434B607B68D5
:101D4C001B6803F00803002B09D0124B5B6823F4CB
:101D5C0060527B681B69DB000E4913434B6000F03B
:101D6C0021F802460B4B5B681B0903F00F030A4971
:101D7C00CB5C22FA03F3094A1360094B1B68184623
:101D8C00FEF75CFC002318461037BD4680BD00BF33
:101D9C000020024000100240041F00080000002038
:101DAC000400002080B487B000AF0023FB60002348
:101DBC00BB6000237B6100237B6000233B611E4BD7
:101DCC005B68FB60FB6803F00C03042B02D0082B50
:101DDC0003D027E0194B3B6127E0FB689B0C03F019
:101DEC000F03174AD35C7B60FB6803F48033002B32
:101DFC0010D0114B5B685B0C03F00103114AD35CF0
:101E0C00BB607B680D4A03FB02F2BB68B2FBF3F3C9
:101E1C007B6104E07B680C4A02FB03F37B617B690A
:101E2C003B6102E0054B3B6100BF3B6918461C3728
:101E3C00BD4680BC704700BF0010024000127A0003
:101E4C00141F0008241F000800093D0080B485B051
:101E5C0000AF78600A4B1B680A4AA2FB03235B0A9B
:101E6C007A6802FB03F3FB6000BFFB685A1EFA6042
:101E7C00002BF9D100BF00BF1437BD4680BC7047A2
:101E8C0000000020D34D621003460244934200D15F
:101E9C00704703F8011BF9E770B500260C4D0D4C8B
:101EAC00641BA410A64209D100F01AF800260A4DB2
:101EBC000A4C641BA410A64205D170BD55F8043B16
:101ECC0098470136EEE755F8043B98470136F2E7A0
:101EDC00281F0008281F0008281F00082C1F0008B6
:101EEC00F8B500BFF8BC08BC9E467047F8B500BFFB
:081EFC00F8BC08BC9E467047CB
:101F040000000000000000000102030406070809A5
:101F140002030405060708090A0B0C0D0E0F101026
:041F240001020000B6
:041F2800310100087B
:041F2C000D0100089B
:0C1F300000127A00100000000100000008
:04000005080005D119
:00000001FF
